{
  "contractName": "Toolkit",
  "abi": [
    {
      "constant": false,
      "inputs": [],
      "name": "renounceOwnership",
      "outputs": [],
      "payable": false,
      "stateMutability": "nonpayable",
      "type": "function"
    },
    {
      "constant": true,
      "inputs": [],
      "name": "owner",
      "outputs": [
        {
          "name": "",
          "type": "address"
        }
      ],
      "payable": false,
      "stateMutability": "view",
      "type": "function"
    },
    {
      "constant": true,
      "inputs": [],
      "name": "isOwner",
      "outputs": [
        {
          "name": "",
          "type": "bool"
        }
      ],
      "payable": false,
      "stateMutability": "view",
      "type": "function"
    },
    {
      "constant": false,
      "inputs": [
        {
          "name": "newOwner",
          "type": "address"
        }
      ],
      "name": "transferOwnership",
      "outputs": [],
      "payable": false,
      "stateMutability": "nonpayable",
      "type": "function"
    },
    {
      "anonymous": false,
      "inputs": [
        {
          "indexed": true,
          "name": "previousOwner",
          "type": "address"
        },
        {
          "indexed": true,
          "name": "newOwner",
          "type": "address"
        }
      ],
      "name": "OwnershipTransferred",
      "type": "event"
    },
    {
      "constant": false,
      "inputs": [
        {
          "name": "_part1",
          "type": "bytes32"
        },
        {
          "name": "_part2",
          "type": "bytes32"
        },
        {
          "name": "_name",
          "type": "string"
        }
      ],
      "name": "add",
      "outputs": [],
      "payable": false,
      "stateMutability": "nonpayable",
      "type": "function"
    },
    {
      "constant": true,
      "inputs": [
        {
          "name": "_part1",
          "type": "bytes32"
        },
        {
          "name": "_part2",
          "type": "bytes32"
        }
      ],
      "name": "validate",
      "outputs": [
        {
          "name": "result",
          "type": "string"
        }
      ],
      "payable": false,
      "stateMutability": "view",
      "type": "function"
    },
    {
      "constant": false,
      "inputs": [],
      "name": "kill",
      "outputs": [],
      "payable": false,
      "stateMutability": "nonpayable",
      "type": "function"
    }
  ],
  "bytecode": "0x6080604052336000806101000a81548173ffffffffffffffffffffffffffffffffffffffff021916908373ffffffffffffffffffffffffffffffffffffffff1602179055506000809054906101000a900473ffffffffffffffffffffffffffffffffffffffff1673ffffffffffffffffffffffffffffffffffffffff16600073ffffffffffffffffffffffffffffffffffffffff167f8be0079c531659141344cd1fd0a4f28419497f9722a3daafe3b4186f6b6457e060405160405180910390a3610776806100cf6000396000f300608060405260043610610083576000357c0100000000000000000000000000000000000000000000000000000000900463ffffffff16806341c0e1b51461008857806341f23c471461009f578063715018a6146101575780638401deb61461016e5780638da5cb5b146101f35780638f32d59b1461024a578063f2fde38b14610279575b600080fd5b34801561009457600080fd5b5061009d6102bc565b005b3480156100ab57600080fd5b506100dc600480360381019080803560001916906020019092919080356000191690602001909291905050506102ef565b6040518080602001828103825283818151815260200191508051906020019080838360005b8381101561011c578082015181840152602081019050610101565b50505050905090810190601f1680156101495780820380516001836020036101000a031916815260200191505b509250505060405180910390f35b34801561016357600080fd5b5061016c6103d9565b005b34801561017a57600080fd5b506101f160048036038101908080356000191690602001909291908035600019169060200190929190803590602001908201803590602001908080601f01602080910402602001604051908101604052809392919081815260200183838082843782019150505050505091929192905050506104ab565b005b3480156101ff57600080fd5b5061020861050c565b604051808273ffffffffffffffffffffffffffffffffffffffff1673ffffffffffffffffffffffffffffffffffffffff16815260200191505060405180910390f35b34801561025657600080fd5b5061025f610535565b604051808215151515815260200191505060405180910390f35b34801561028557600080fd5b506102ba600480360381019080803573ffffffffffffffffffffffffffffffffffffffff16906020019092919050505061058c565b005b6102c4610535565b15156102cf57600080fd5b6102d761050c565b73ffffffffffffffffffffffffffffffffffffffff16ff5b60606102f9610535565b151561030457600080fd5b600160008460001916600019168152602001908152602001600020600083600019166000191681526020019081526020016000208054600181600116156101000203166002900480601f0160208091040260200160405190810160405280929190818152602001828054600181600116156101000203166002900480156103cc5780601f106103a1576101008083540402835291602001916103cc565b820191906000526020600020905b8154815290600101906020018083116103af57829003601f168201915b5050505050905092915050565b6103e1610535565b15156103ec57600080fd5b600073ffffffffffffffffffffffffffffffffffffffff166000809054906101000a900473ffffffffffffffffffffffffffffffffffffffff1673ffffffffffffffffffffffffffffffffffffffff167f8be0079c531659141344cd1fd0a4f28419497f9722a3daafe3b4186f6b6457e060405160405180910390a360008060006101000a81548173ffffffffffffffffffffffffffffffffffffffff021916908373ffffffffffffffffffffffffffffffffffffffff160217905550565b6104b3610535565b15156104be57600080fd5b806001600085600019166000191681526020019081526020016000206000846000191660001916815260200190815260200160002090805190602001906105069291906106a5565b50505050565b60008060009054906101000a900473ffffffffffffffffffffffffffffffffffffffff16905090565b60008060009054906101000a900473ffffffffffffffffffffffffffffffffffffffff1673ffffffffffffffffffffffffffffffffffffffff163373ffffffffffffffffffffffffffffffffffffffff1614905090565b610594610535565b151561059f57600080fd5b6105a8816105ab565b50565b600073ffffffffffffffffffffffffffffffffffffffff168173ffffffffffffffffffffffffffffffffffffffff16141515156105e757600080fd5b8073ffffffffffffffffffffffffffffffffffffffff166000809054906101000a900473ffffffffffffffffffffffffffffffffffffffff1673ffffffffffffffffffffffffffffffffffffffff167f8be0079c531659141344cd1fd0a4f28419497f9722a3daafe3b4186f6b6457e060405160405180910390a3806000806101000a81548173ffffffffffffffffffffffffffffffffffffffff021916908373ffffffffffffffffffffffffffffffffffffffff16021790555050565b828054600181600116156101000203166002900490600052602060002090601f016020900481019282601f106106e657805160ff1916838001178555610714565b82800160010185558215610714579182015b828111156107135782518255916020019190600101906106f8565b5b5090506107219190610725565b5090565b61074791905b8082111561074357600081600090555060010161072b565b5090565b905600a165627a7a72305820a96fad7f731e5af0cac8fd8cc3fa7439e7dff684d2bf5eaf3982ae6fc41b8d710029",
  "source": "pragma solidity ^0.4.23;\n\nimport 'openzeppelin-solidity/contracts/ownership/Ownable.sol';\n\ncontract Toolkit is Ownable {\n  mapping(bytes32 => mapping(bytes32 => string)) hashes;\n\n  function add(bytes32 _part1, bytes32 _part2, string _name) public onlyOwner {\n    hashes[_part1][_part2] = _name;\n  }\n\n  function validate(bytes32 _part1, bytes32 _part2) public view onlyOwner returns (string result)  {\n    result = hashes[_part1][_part2];\n  }\n\n  function kill() public onlyOwner {\n    selfdestruct(owner());\n  }\n}\n",
  "sourcePath": "/home/mesi/Projects/Vivelab/toolkit/contracts/contracts/Toolkit.sol",
  "compiler": {
    "name": "solc",
    "version": "0.4.24+commit.e67f0147.Emscripten.clang"
  },
  "schemaVersion": "2.0.1",
  "updatedAt": "2018-10-24T22:46:21.339Z"
}