{
  "contractName": "Toolkit",
  "abi": [
    {
      "constant": false,
      "inputs": [],
      "name": "renounceOwnership",
      "outputs": [],
      "payable": false,
      "stateMutability": "nonpayable",
      "type": "function"
    },
    {
      "constant": true,
      "inputs": [],
      "name": "owner",
      "outputs": [
        {
          "name": "",
          "type": "address"
        }
      ],
      "payable": false,
      "stateMutability": "view",
      "type": "function"
    },
    {
      "constant": true,
      "inputs": [],
      "name": "isOwner",
      "outputs": [
        {
          "name": "",
          "type": "bool"
        }
      ],
      "payable": false,
      "stateMutability": "view",
      "type": "function"
    },
    {
      "constant": false,
      "inputs": [
        {
          "name": "newOwner",
          "type": "address"
        }
      ],
      "name": "transferOwnership",
      "outputs": [],
      "payable": false,
      "stateMutability": "nonpayable",
      "type": "function"
    },
    {
      "anonymous": false,
      "inputs": [
        {
          "indexed": true,
          "name": "previousOwner",
          "type": "address"
        },
        {
          "indexed": true,
          "name": "newOwner",
          "type": "address"
        }
      ],
      "name": "OwnershipTransferred",
      "type": "event"
    },
    {
      "constant": false,
      "inputs": [
        {
          "name": "_part1",
          "type": "string"
        },
        {
          "name": "_part2",
          "type": "string"
        },
        {
          "name": "_name",
          "type": "string"
        }
      ],
      "name": "add",
      "outputs": [],
      "payable": false,
      "stateMutability": "nonpayable",
      "type": "function"
    },
    {
      "constant": true,
      "inputs": [
        {
          "name": "_part1",
          "type": "string"
        },
        {
          "name": "_part2",
          "type": "string"
        }
      ],
      "name": "validate",
      "outputs": [
        {
          "name": "result",
          "type": "string"
        }
      ],
      "payable": false,
      "stateMutability": "view",
      "type": "function"
    },
    {
      "constant": false,
      "inputs": [],
      "name": "kill",
      "outputs": [],
      "payable": false,
      "stateMutability": "nonpayable",
      "type": "function"
    }
  ],
  "bytecode": "0x6080604052336000806101000a81548173ffffffffffffffffffffffffffffffffffffffff021916908373ffffffffffffffffffffffffffffffffffffffff1602179055506000809054906101000a900473ffffffffffffffffffffffffffffffffffffffff1673ffffffffffffffffffffffffffffffffffffffff16600073ffffffffffffffffffffffffffffffffffffffff167f8be0079c531659141344cd1fd0a4f28419497f9722a3daafe3b4186f6b6457e060405160405180910390a361089a806100cf6000396000f300608060405260043610610083576000357c0100000000000000000000000000000000000000000000000000000000900463ffffffff168063027494501461008857806341c0e1b5146101b0578063715018a6146101c75780638da5cb5b146101de5780638f32d59b14610235578063f034d6b114610264578063f2fde38b14610359575b600080fd5b34801561009457600080fd5b50610135600480360381019080803590602001908201803590602001908080601f0160208091040260200160405190810160405280939291908181526020018383808284378201915050505050509192919290803590602001908201803590602001908080601f016020809104026020016040519081016040528093929190818152602001838380828437820191505050505050919291929050505061039c565b6040518080602001828103825283818151815260200191508051906020019080838360005b8381101561017557808201518184015260208101905061015a565b50505050905090810190601f1680156101a25780820380516001836020036101000a031916815260200191505b509250505060405180910390f35b3480156101bc57600080fd5b506101c56104a1565b005b3480156101d357600080fd5b506101dc6104d4565b005b3480156101ea57600080fd5b506101f36105a6565b604051808273ffffffffffffffffffffffffffffffffffffffff1673ffffffffffffffffffffffffffffffffffffffff16815260200191505060405180910390f35b34801561024157600080fd5b5061024a6105cf565b604051808215151515815260200191505060405180910390f35b34801561027057600080fd5b50610357600480360381019080803590602001908201803590602001908080601f0160208091040260200160405190810160405280939291908181526020018383808284378201915050505050509192919290803590602001908201803590602001908080601f0160208091040260200160405190810160405280939291908181526020018383808284378201915050505050509192919290803590602001908201803590602001908080601f0160208091040260200160405190810160405280939291908181526020018383808284378201915050505050509192919290505050610626565b005b34801561036557600080fd5b5061039a600480360381019080803573ffffffffffffffffffffffffffffffffffffffff1690602001909291905050506106a2565b005b60606000806103a96105cf565b15156103b457600080fd5b6103bd856106c1565b91506103c8846106c1565b9050600160008360001916600019168152602001908152602001600020600082600019166000191681526020019081526020016000208054600181600116156101000203166002900480601f0160208091040260200160405190810160405280929190818152602001828054600181600116156101000203166002900480156104925780601f1061046757610100808354040283529160200191610492565b820191906000526020600020905b81548152906001019060200180831161047557829003601f168201915b50505050509250505092915050565b6104a96105cf565b15156104b457600080fd5b6104bc6105a6565b73ffffffffffffffffffffffffffffffffffffffff16ff5b6104dc6105cf565b15156104e757600080fd5b600073ffffffffffffffffffffffffffffffffffffffff166000809054906101000a900473ffffffffffffffffffffffffffffffffffffffff1673ffffffffffffffffffffffffffffffffffffffff167f8be0079c531659141344cd1fd0a4f28419497f9722a3daafe3b4186f6b6457e060405160405180910390a360008060006101000a81548173ffffffffffffffffffffffffffffffffffffffff021916908373ffffffffffffffffffffffffffffffffffffffff160217905550565b60008060009054906101000a900473ffffffffffffffffffffffffffffffffffffffff16905090565b60008060009054906101000a900473ffffffffffffffffffffffffffffffffffffffff1673ffffffffffffffffffffffffffffffffffffffff163373ffffffffffffffffffffffffffffffffffffffff1614905090565b6000806106316105cf565b151561063c57600080fd5b610645856106c1565b9150610650846106c1565b90508260016000846000191660001916815260200190815260200160002060008360001916600019168152602001908152602001600020908051906020019061069a9291906107c9565b505050505050565b6106aa6105cf565b15156106b557600080fd5b6106be816106cf565b50565b600060208201519050919050565b600073ffffffffffffffffffffffffffffffffffffffff168173ffffffffffffffffffffffffffffffffffffffff161415151561070b57600080fd5b8073ffffffffffffffffffffffffffffffffffffffff166000809054906101000a900473ffffffffffffffffffffffffffffffffffffffff1673ffffffffffffffffffffffffffffffffffffffff167f8be0079c531659141344cd1fd0a4f28419497f9722a3daafe3b4186f6b6457e060405160405180910390a3806000806101000a81548173ffffffffffffffffffffffffffffffffffffffff021916908373ffffffffffffffffffffffffffffffffffffffff16021790555050565b828054600181600116156101000203166002900490600052602060002090601f016020900481019282601f1061080a57805160ff1916838001178555610838565b82800160010185558215610838579182015b8281111561083757825182559160200191906001019061081c565b5b5090506108459190610849565b5090565b61086b91905b8082111561086757600081600090555060010161084f565b5090565b905600a165627a7a72305820763111bd4deef398cb8dccb9dd0b7a19461a976d269f559d03403bb587180bf30029",
  "source": "pragma solidity ^0.4.23;\n\nimport 'openzeppelin-solidity/contracts/ownership/Ownable.sol';\nimport './StringUtils.sol';\n\ncontract Toolkit is Ownable {\n  using StringUtils for string;\n  mapping(bytes32 => mapping(bytes32 => string)) hashes;\n\n  function add(string _part1, string _part2, string _name) public onlyOwner {\n    bytes32 part1 = _part1.stringToBytes32();\n    bytes32 part2 = _part2.stringToBytes32();\n    hashes[part1][part2] = _name;\n  }\n\n  function validate(string _part1, string _part2) public view onlyOwner returns (string result)  {\n    bytes32 part1 = _part1.stringToBytes32();\n    bytes32 part2 = _part2.stringToBytes32();\n    result = hashes[part1][part2];\n  }\n\n  function kill() public onlyOwner {\n    selfdestruct(owner());\n  }\n}\n",
  "sourcePath": "/home/mesi/Projects/Vivelab/toolkit/contracts/contracts/Toolkit.sol",
  "compiler": {
    "name": "solc",
    "version": "0.4.24+commit.e67f0147.Emscripten.clang"
  },
  "schemaVersion": "2.0.1",
  "updatedAt": "2018-10-25T18:23:49.554Z"
}